:100000000C9480020C94EA0F0C949D020C949D02B7
:100010000C949D020C949D020C949D020C949D02E4
:100020000C949D020C949D020C94B20F0C949D02B2
:100030000C949D020C94860F0C949D020C949D02CE
:100040000C9430040C949D020C949D020C949D021F
:100050000C949D020C949D020C949D020C949D02A4
:100060000C949D020C949D02000001002C001100D4
:1000700001002D00110001002E00110001002100DF
:1000800016002100040021000800010022001000D9
:1000900001001200160001000400120015002100EA
:1000A0000D0020000B0011001E000400470072002C
:1000B00065006500740069006E006700730022002F
:1000C00038000F00060000000000000000000000E3
:1000D0000000000000000000000000000000000020
:1000E0000000000000000000000000000000000010
:1000F0000000000000000000000000000000000000
:1001000000000000000000000000000000000000EF
:1001100000000000000000000000000000000000DF
:1001200000000000000000000000000000000000CF
:1001300000000000000000000000000000000000BF
:1001400000000000000000000000000000000000AF
:10015000000000000000000000000000000000009F
:10016000000000000000000000000000000000008F
:10017000000000000000000000000000000000007F
:10018000000000000000000000000000000000006F
:10019000000000000000000000000000000000005F
:1001A000000000000000000000000000000000004F
:1001B000000000000000000000000000000000003F
:1001C000000000000000000000000000000000002F
:1001D000000000000000000000000000000000001F
:1001E000000000000000000000000000000000000F
:1001F00000000000000000000000000000000000FF
:1002000000000000000000000000000000000000EE
:1002100000000000000000000000000000000000DE
:1002200000000000000000000000000000000000CE
:1002300000000000000000000000000000000000BE
:1002400000000000000000000000000000000000AE
:10025000000000000000000000000000000000009E
:100260000000000000000000000000070002010084
:100270000003040600000000000000000102040862
:100280001020408001020408102001020408102000
:10029000040404040404040402020202020203032C
:1002A00003030303000000002300260029000000D0
:1002B0000000250028002B0000000000240027007B
:1002C0002A000406200000000000004040400040DA
:1002D00000A0A000000000A0E0A0E0A0004060C0DE
:1002E00060C000A0204080A0002040C0A0E00080AE
:1002F00080000000004080808040008040404080BE
:100300000040A0400000000040E04000000000006D
:100310008080000000E0000000000000008000205D
:100320002040808000E0A0A0A0E00040C04040E06D
:1003300000E020E080E000E020E020E000A0A0E07D
:10034000202000E080E020C000C080E0A0E000E0CD
:100350002040808000E0A0E0A0E000E0A0E020607D
:10036000000040004000000040004080002040802D
:1003700040200000E000E00000804020408000C0FD
:100380002040004000E0A0A0E0E000E0A0E0A0A04D
:1003900000C0A0E0A0C000E0808080E000C0A0A07D
:1003A000A0C000E080E080E000E080E0808000E02D
:1003B0008080A0E000A0A0E0A0A000E0404040E0DD
:1003C00000202020A0E00080A0C0C0A0008080808D
:1003D00080E000A0E0E0A0A000C0A0A0A0A000409D
:1003E000A0A0A04000E0A0E080800040A0A0E066C7
:1003F00000E0A0C0E0AA00E080E020E000E0404093
:10040000404000A0A0A0A0E000A0A0A0A04000A0AC
:10041000A0E0E0A200A0A040A0A000A0A04040401A
:1004200000E0204080E000C0808080C000808040EC
:10043000202000C0404040C00040A000000000005C
:10044000000000E0008040000000000060A0A0600C
:10045000008080C0A0C0000060808060002020601C
:10046000A0600040A0E08060006040E0404000608C
:10047000A06020C0008080C0A0A00040004040409C
:100480000040004040C0008080A0C0A000C04040AC
:1004900040E00000A0E0A0A00000C0A0A0A00000DC
:1004A00040A0A0400000C0A0C080000060A060206C
:1004B0000000C0A080800000604020600040E0405C
:1004C00040400000A0A0A0600000A0A0A04000004C
:1004D000A0A0E0A00000A04040A00000A0E02040BC
:1004E0000000E04080E0002040C04022004040008A
:1004F00040400080406040800000A04000000000BC
:1005000011241FBECFEFD8E0DEBFCDBF11E0A0E0C9
:10051000B1E0EAE1F7E202C005900D92AE35B10715
:10052000D9F721E0AEE5B1E001C01D92A839B207CC
:10053000E1F70E943B050C948B130C9400000F9381
:100540001F93CF93DF9381E080935F016AE071E0B6
:1005500080E691E00E94201108E610E0C0E0D0E0C3
:10056000F801249140E063E082E00E9400052C2F16
:1005700040E063E082E00E94000561E070E080E01E
:1005800090E00E949F0460E084E00E94D70361E055
:1005900070E080E090E00E949F0461E084E00E94AF
:1005A000D70361E070E080E090E00E949F0460E08B
:1005B00084E00E94D70361E070E080E090E00E9458
:1005C0009F0461E08CE00E94D70361E070E080E06E
:1005D00090E00E949F0460E08CE00E94D70364E1F9
:1005E00070E080E090E00E949F0461E08CE00E9457
:1005F000D70361E070E080E090E00E949F042196C4
:100600000E5F1F4FC115F1E0DF0709F0A9CF6FE1C1
:1006100071E080E691E00E94201160ED77E080E0DB
:1006200090E00E949F0460E080E691E0DF91CF912E
:100630001F910F910C94480561E08CE00E949B0390
:1006400061E083E00E949B0361E084E00E949B03E1
:1006500061E082E00E949B0360E08DE00C949B03CC
:1006600060E080E691E00E949A0562EC72E080E62C
:1006700091E00E9446100E941C0380915F0181114D
:1006800002C00E949F0268EE73E080E090E00C944C
:100690009F048DE00E94070420915E01422F50E0EC
:1006A00084179507F1F081E0211180E080935E01CD
:1006B00086E00E940704892BA1F06DE471E080E6DA
:1006C00091E00E94121142E050E060E080E691E08B
:1006D0000E94E61140E050E060E080E691E00C947A
:1006E000E6110895833081F028F4813099F082304A
:1006F000A1F008958630A9F08730B9F08430D1F4A4
:10070000809180008F7D03C0809180008F778093DF
:100710008000089584B58F7702C084B58F7D84BD35
:1007200008958091B0008F7703C08091B0008F7DD5
:100730008093B0000895CF93DF9390E0FC01E458DC
:10074000FD4F2491FC01E057FD4F8491882361F116
:1007500090E0880F991FFC01E854FD4FC591D4919A
:10076000FC01E255FD4FA591B491611109C09FB7FD
:10077000F8948881209582238883EC912E230BC0E6
:10078000623061F49FB7F8943881822F809583237B
:100790008883EC912E2B2C939FBF06C08FB7F894C3
:1007A000E8812E2B28838FBFDF91CF9108951F936F
:1007B000CF93DF93282F30E0F901E859FD4F849162
:1007C000F901E458FD4FD491F901E057FD4FC49170
:1007D000CC23C9F0162F81110E947203EC2FF0E098
:1007E000EE0FFF1FE255FD4FA591B4918FB7F8941E
:1007F000111105C09C91ED2FE095E92302C0EC9109
:10080000ED2BEC938FBFDF91CF911F910895CF9384
:10081000DF93282F30E0F901E859FD4F8491F90169
:10082000E458FD4FD491F901E057FD4FC491CC231A
:1008300091F081110E947203EC2FF0E0EE0FFF1F88
:10084000EC55FD4FA591B491EC91ED2381E090E042
:1008500021F480E002C080E090E0DF91CF91089524
:100860001F920F920FB60F9211242F933F938F93E5
:100870009F93AF93BF938091670190916801A0917E
:100880006901B0916A013091660123E0230F2D3791
:1008900020F40196A11DB11D05C026E8230F029684
:1008A000A11DB11D2093660180936701909368019B
:1008B000A0936901B0936A0180916B0190916C01E2
:1008C000A0916D01B0916E010196A11DB11D8093A3
:1008D0006B0190936C01A0936D01B0936E01BF9179
:1008E000AF919F918F913F912F910F900FBE0F90DD
:1008F0001F9018953FB7F89480916B0190916C010F
:10090000A0916D01B0916E0126B5A89B05C02F3F47
:1009100019F00196A11DB11D3FBFBA2FA92F982F25
:100920008827820F911DA11DB11DBC01CD0142E0A0
:10093000660F771F881F991F4A95D1F70895CF92A8
:10094000DF92EF92FF92CF93DF936B017C010E94C5
:100950007A04EB01C114D104E104F10479F00E949E
:100960007A046C1B7D0B683E7340A0F381E0C81ACB
:10097000D108E108F108C851DC4FECCFDF91CF91ED
:10098000FF90EF90DF90CF900895789484B58260C7
:1009900084BD84B5816084BD85B5826085BD85B523
:1009A000816085BDEEE6F0E0808181608083E1E8D2
:1009B000F0E010828081826080838081816080830A
:1009C000E0E8F0E0808181608083E1EBF0E080810D
:1009D00084608083E0EBF0E0808181608083EAE7DF
:1009E000F0E0808184608083808182608083808168
:1009F000816080838081806880831092C100089527
:100A0000BF92CF92DF92EF92FF920F931F93CF93FB
:100A1000DF93C82ED62EB42EC7E0D0E0022F10E010
:100A200087E0E82EF12CB11005C0C7018C1B9D0B8F
:100A3000980102C098018C2F02C0359527958A95A0
:100A4000E2F7B901617077278C2D0E94D70361E02E
:100A50008D2D0E94D70360E08D2D0E94D703219732
:100A600010F7DF91CF911F910F91FF90EF90DF90E2
:100A7000CF90BF9008950E94C5040E943003C0E04B
:100A8000D0E00E9449032097E1F30E940000F9CFD3
:100A9000FC01613069F018F06230C1F008951282F3
:100AA000138240918B0150918C0160E070E008C08E
:100AB0001282138240918B0150918C016FEF70E094
:100AC00080919001909191010C948413E091900198
:100AD000F091910180918B0190918C018E0F9F1F5D
:100AE000E817F90721F0208120952193F9CF089587
:100AF0000F931F93CF93DF93EC01942F842F887F64
:100B000099F0422F862F198308831A821B82692F3E
:100B100066956695669598010E946F0E60E0CE011D
:100B20000E94480580E001C081E0DF91CF911F91D4
:100B30000F910895EF92FF920F931F93CF93DF933E
:100B40001F92CDB7DEB77C0180E096E069830E94FA
:100B500057128C016981892B31F020E640E8C701EA
:100B60000E94780501C084E00F90DF91CF911F9122
:100B70000F91FF90EF9008952F923F924F925F92C6
:100B80006F927F928F929F92AF92BF92CF92DF929D
:100B9000EF92FF920F931F93CF93DF93CDB7DEB702
:100BA00029970FB6F894DEBF0FBECDBF998788870F
:100BB000862F877058E0581BE11006C0F901E00F3E
:100BC000F11FE4900F5F1F4FC11006C0F901E00F45
:100BD000F11FC4900F5F1F4F9E2D9770E694E6940F
:100BE000E694992319F0E1E0EE0D02C0EE2D98E0B5
:100BF000669566956695E62EF12CFC82EB82282E92
:100C0000312C6FEF70E002C0759567958A95E2F719
:100C1000892F860FA52FB0E0BA83A983E13011F4A4
:100C2000982E01C0912CAFEFB0E07D0101C0EE0C19
:100C30005A95EAF79E289D826850D62ED90EA12C8F
:100C4000B12C842E912CEE2EF12CA701415051098C
:100C50005F834E832101490E511CAC1408F090C0F3
:100C600090918A01A501480D591D949FB001959F4F
:100C7000700D1124AB81BC816A0F7B1FA885B985DB
:100C8000ED91FC91E60FF71F90814D814923408340
:100C9000D8011196F901E00FF11F4491E885F9851B
:100CA000E080F180F701E60FF71FE42EF12C022C13
:100CB00002C0F594E7940A94E2F75081E52AE082B5
:100CC0006E807F806A0E7B1E7B01E01AF10A87012D
:100CD0007801EA0EFB1EE885F9856081718150E09C
:100CE000A615B70510F56E0D7F1DFB0190810980DB
:100CF00001C0440F0A94EAF74083F901EA0FFB1F91
:100D00004491E885F98560817181FB01EE0DFF1D3D
:100D1000642F70E0022C02C0759567950A94E2F783
:100D20005081652B60831196D3CFF8E04F165104A4
:100D300044F4F7013197E60FF71F98236081962B53
:100D400009C098E04916510431F0FB01EE0DFF1D7A
:100D500090819D219083E885F985608171816E0D78
:100D60007F1D098002C0440F551F0A94E2F7FB0162
:100D70009081492B4083FFEFAF1ABF0A8D016DCFE1
:100D800029960FB6F894DEBF0FBECDBFDF91CF918D
:100D90001F910F91FF90EF90DF90CF90BF90AF9099
:100DA0009F908F907F906F905F904F903F902F908B
:100DB0000895DF92EF92FF920F931F93CF93DF93EB
:100DC0004130A9F1C0F0423009F44DC0433009F080
:100DD000C0C0562F5770F52E66956695669570E0E3
:100DE000719561957109E12C42E050E028E030E016
:100DF0002F1931097CC0809190019091910120912F
:100E00008A01DC01629FA00DB11D1124309189017E
:100E1000AC01329F400D511D11249A01FC012A178B
:100E20003B0708F496C08C9181931D92F8CF809176
:100E30009001909191013091890120918A01DC010A
:100E4000329FA00DB11D1124FD01629FE019F1092F
:100E500011241196E817F90708F47BC020812E931E
:100E600010823197F7CFD62FD77066956695669525
:100E700070E0C0E048E050E04D1B510980918901CD
:100E8000C81708F066C080918A01E0919001F09146
:100E900091018C9FE00DF11D1124DF01A60FB71FFA
:100EA00090E002978E0F9F1F8A179B07A0F02C914E
:100EB000122F0D2E01C0110F0A94EAF71D923C91DA
:100EC000232F30E0042E02C0359527950A94E2F7CF
:100ED000212B2193E9CF8C910D2E01C0880F0A940C
:100EE000EAF71C928083CF5FC9CF8083E39480911F
:100EF0008901E81670F5A0918A018A2F90E0FC0123
:100F00003197AE9DE00DF11D1124A0919001B0919B
:100F10009101EA0FFB1FDF01A60FB71F8A01081B13
:100F2000190B0E0F1F1F8C9190E00F2C02C095958E
:100F300087950A94E2F71C92A017B107B0F2CE9100
:100F4000022E01C0CC0F0A94EAF78C2B80833197D4
:100F5000EACFDF91CF911F910F91FF90EF90DF903B
:100F60000895089520918400382F3A50321B335051
:100F7000F0F73D5F19F03A9511F001C000000895B7
:100F800080917701909178010196909378018093F8
:100F9000770180918D010E94B207E0917501F09177
:100FA0007601099580918F01811111C080918E0188
:100FB00080938F0120918A018091920190919301F9
:100FC000820F911D909393018093920103C08150F1
:100FD00080938F0120917701309178018091810178
:100FE000909182012817390731F487E99DE09093A9
:100FF00074018093730108950F93CF93DF93E7E714
:10100000F1E0A18DB28DC0919201D09193018389BD
:10101000AC0FBD1F0BB10F7703C000FA07F90BB976
:101020000D90000007FA07F90BB90000000000005E
:1010300006FA07F90BB900000000000005FA07F9ED
:101040000BB900000000000004FA07F90BB900001A
:101050000000000003FA07F90BB9000000000000CF
:1010600002FA07F90BB900000000000001FA07F9C5
:101070000BB98A9591F60000000000FA07F90BB948
:101080000BB10F7707FB07F90BB9DF91CF910F91E8
:1010900008950F93CF93DF93E7E7F1E0A18DB28D31
:1010A000C0919201D09193018389AC0FBD1F0BB108
:1010B0000F7703C000FA07F90BB90D9007FA07F98B
:1010C0000BB90000000006FA07F90BB90000000098
:1010D00005FA07F90BB90000000004FA07F90BB98B
:1010E0000000000003FA07F90BB90000000002FA43
:1010F00007F90BB900008A9501FA07F90BB9D1F687
:10110000000000FA07F90BB90BB10F7707FB07F9DD
:101110000BB9DF91CF910F9108950F93CF93DF9388
:10112000E7E7F1E0A18DB28DC0919201D0919301DA
:101130008389AC0FBD1F02C0000C0BB80D900000DE
:101140000BB800000000000C0BB800000000000C01
:101150000BB800000000000C0BB800000000000CF1
:101160000BB800000000000C0BB80000000C8A95C2
:101170000BB811F70000000C0BB8000000000000D5
:101180005F98DF91CF910F9108950F93CF93DF93E5
:10119000E7E7F1E0A18DB28DC0919201D09193016A
:1011A0008389AC0FBD1F8E3191F08D3151F08C31A0
:1011B00049F08B3141F08A3139F0893131F0883191
:1011C00029F01CC032C048C05EC074C08AC00D90F7
:1011D0000BB80000000C0BB80000000C0BB80000AE
:1011E000000C0BB80000000C0BB80000000C0BB892
:1011F0000000000C0BB80000000C0BB80D900BB8F1
:101200000000000C0BB80000000C0BB80000000C34
:101210000BB80000000C0BB80000000C0BB800006D
:10122000000C0BB80000000C0BB80D900BB80000C0
:10123000000C0BB80000000C0BB80000000C0BB841
:101240000000000C0BB80000000C0BB80000000CF4
:101250000BB80000000C0BB80D900BB80000000C90
:101260000BB80000000C0BB80000000C0BB800001D
:10127000000C0BB80000000C0BB80000000C0BB801
:101280000000000C0BB80D900BB80000000C0BB860
:101290000000000C0BB80000000C0BB80000000CA4
:1012A0000BB80000000C0BB80000000C0BB80000DD
:1012B000000C0BB80D900BB80000000C0BB8000030
:1012C000000C0BB80000000C0BB80000000C0BB8B1
:1012D0000000000C0BB80000000C0BB80000000C64
:1012E0000BB80D900BB80000000C0BB80000000C00
:1012F0000BB80000000C0BB80000000C0BB800008D
:10130000000C0BB80000000C0BB80000000C0BB870
:101310000D900BB80000000C0BB80000000C0BB8CF
:101320000000000C0BB80000000C0BB80000000C13
:101330000BB80000000C0BB80000000C0BB80D90AF
:101340000BB80000000C0BB80000000C0BB800003C
:10135000000C0BB80000000C0BB80000000C0BB820
:101360000000000C0BB80000000C0BB80D900BB87F
:101370000000000C0BB80000000C0BB80000000CC3
:101380000BB80000000C0BB80000000C0BB80000FC
:10139000000C0BB80000000C0BB80D900BB800004F
:1013A000000C0BB80000000C0BB80000000C0BB8D0
:1013B0000000000C0BB80000000C0BB80000000C83
:1013C0000BB80000000C0BB80D900BB80000000C1F
:1013D0000BB80000000C0BB80000000C0BB80000AC
:1013E000000C0BB80000000C0BB80000000C0BB890
:1013F0000000000C0BB80D900BB80000000C0BB8EF
:101400000000000C0BB80000000C0BB80000000C32
:101410000BB80000000C0BB80000000C0BB800006B
:10142000000C0BB80D900BB80000000C0BB80000BE
:10143000000C0BB80000000C0BB80000000C0BB83F
:101440000000000C0BB80000000C0BB80000000CF2
:101450000BB80D900BB80000000C0BB80000000C8E
:101460000BB80000000C0BB80000000C0BB800001B
:10147000000C0BB80000000C0BB80000000C0BB8FF
:101480000D900BB80000000C0BB80000000C0BB85E
:101490000000000C0BB80000000C0BB80000000CA2
:1014A0000BB80000000C0BB80000000C0BB80D903E
:1014B0000BB80000000C0BB80000000C0BB80000CB
:1014C000000C0BB80000000C0BB80000000C0BB8AF
:1014D0000000000C0BB80000000C0BB80D900BB80E
:1014E0000000000C0BB80000000C0BB80000000C52
:1014F0000BB80000000C0BB80000000C0BB800008B
:10150000000C0BB80000000C0BB80D900BB80000DD
:10151000000C0BB80000000C0BB80000000C0BB85E
:101520000000000C0BB80000000C0BB80000000C11
:101530000BB80000000C0BB80D900BB80000000CAD
:101540000BB80000000C0BB80000000C0BB800003A
:10155000000C0BB80000000C0BB80000000C0BB81E
:101560000000000C0BB80D900BB80000000C0BB87D
:101570000000000C0BB80000000C0BB80000000CC1
:101580000BB80000000C0BB80000000C0BB80000FA
:10159000000C0BB80D900BB80000000C0BB800004D
:1015A000000C0BB80000000C0BB80000000C0BB8CE
:1015B0000000000C0BB80000000C0BB80000000C81
:1015C0000BB80D900BB80000000C0BB80000000C1D
:1015D0000BB80000000C0BB80000000C0BB80000AA
:1015E000000C0BB80000000C0BB80000000C0BB88E
:1015F0000D900BB80000000C0BB80000000C0BB8ED
:101600000000000C0BB80000000C0BB80000000C30
:101610000BB80000000C0BB80000000C0BB80D90CC
:101620000BB80000000C0BB80000000C0BB8000059
:10163000000C0BB80000000C0BB80000000C0BB83D
:101640000000000C0BB80000000C0BB80D900BB89C
:101650000000000C0BB80000000C0BB80000000CE0
:101660000BB80000000C0BB80000000C0BB8000019
:10167000000C0BB80000000C0BB80D900BB800006C
:10168000000C0BB80000000C0BB80000000C0BB8ED
:101690000000000C0BB80000000C0BB80000000CA0
:1016A0000BB80000000C0BB80D900BB80000000C3C
:1016B0000BB80000000C0BB80000000C0BB80000C9
:1016C000000C0BB80000000C0BB80000000C0BB8AD
:1016D0000000000C0BB80D900BB80000000C0BB80C
:1016E0000000000C0BB80000000C0BB80000000C50
:1016F0000BB80000000C0BB80000000C0BB8000089
:10170000000C0BB80D900BB80000000C0BB80000DB
:10171000000C0BB80000000C0BB80000000C0BB85C
:101720000000000C0BB80000000C0BB80000000C0F
:101730000BB8000000005F98DF91CF910F910895E2
:101740008091790190917A01019690937A0180932A
:10175000790180918701909188018833914061F5EA
:101760008091790190917A01059719F484EB91E0C9
:1017700008C08091790190917A010A9739F485E245
:1017800090E090938900809388000895809179017A
:1017900090917A010F9709F03FC08FEF93E09093FB
:1017A0008700809386008AE490E09093890080937C
:1017B000880086E090E026C08091790190917A01BE
:1017C000069719F480EB91E0DCCF8091790190913C
:1017D0007A010C9719F483E290E0D3CF80917901DC
:1017E00090917A014297C1F488EF93E0909387003B
:1017F000809386008AE490E090938900809388002B
:101800008AE090E090937801809377018DE09CE0EE
:101810009093740180937301089580917701909162
:1018200078010196909378018093770180918701E8
:10183000909188018833914081F480917701909153
:1018400078018733914071F58FEF91E09093870095
:101850008093860085E290E017C080917701909197
:1018600078018630914039F48BEF91E090938700B6
:101870008093860017C0809177019091780187301E
:10188000914081F483E290E09093890080938800F6
:1018900088E99CE0909374018093730110927A011F
:1018A00010927901209177013091780180917F0128
:1018B0009091800128173907D1F510929301109269
:1018C000920180918E0180938F0181ED9DE0909334
:1018D00074018093730180916F0190917001A091C8
:1018E0007101B0917201181619061A061B06D4F47C
:1018F00080916F0190917001A0917101B09172017E
:101900000197A109B10980936F0190937001A09391
:101910007101B0937201892B8A2B8B2B19F41092D1
:10192000B1002B98E0910601F09107010994089508
:101930008091790190917A01019690937A01809338
:10194000790180918701909188018833914061F5F8
:101950008091790190917A01059719F484EB91E0D7
:1019600008C08091790190917A010A9739F485E253
:1019700090E0909389008093880008958091790188
:1019800090917A010E9709F046C08FEF93E0909303
:101990008700809386008AE490E09093890080938A
:1019A00088008EE391E02DC08091790190917A01B9
:1019B000069719F480EB91E0DCCF8091790190914A
:1019C0007A010C9719F483E290E0D3CF80917901EA
:1019D00090917A01419739F488EF93E090938700D2
:1019E0008093860008958091790190917A014297C1
:1019F00091F48AE490E0909389008093880080E1DC
:101A000091E090937801809377018CE09DE0909332
:101A1000740180937301089580917701909178010A
:101A2000019690937801809377018091870190913E
:101A3000880188339140C1F48091770190917801B9
:101A40008F36924039F48FEF91E090938700809326
:101A5000860027C08091770190917801803792406D
:101A600001F585E290E00FC08091770190917801B7
:101A70008D309240B1F48BEF91E09093870080938A
:101A8000860083E290E0909389008093880080EA4A
:101A90009BE0909374018093730110927A011092ED
:101AA00079012091770130917801809183019091A3
:101AB000840128173907D1F51092930110929201F1
:101AC00080918E0180938F0180E29EE0909374015B
:101AD0008093730180916F0190917001A0917101C9
:101AE000B0917201181619061A061B06D4F48091DB
:101AF0006F0190917001A0917101B09172010197F5
:101B0000A109B10980936F0190937001A0937101B5
:101B1000B0937201892B8A2B8B2B19F41092B10090
:101B20002B98E0910601F0910701099408958091A6
:101B300077019091780101969093780180937701D5
:101B4000209177013091780180917F0190918001FF
:101B50002817390779F4109293011092920180911D
:101B60008E0180938F0180EC97E0909374018093B5
:101B7000730108952091770130917801809181015E
:101B800090918201821793075CF481EB97E0909328
:101B9000740180937301E0910601F09107010994AB
:101BA0000895809177019091780101969093780142
:101BB0008093770180918D010E94B207E0917501B9
:101BC000F0917601099580918F01811111C080916A
:101BD0008E0180938F0120918A01809192019091D2
:101BE0009301820F911D909393018093920103C002
:101BF000815080938F0120917701309178018091FD
:101C000081019091820128173907C9F480917B01E5
:101C100090917C01A0917D01B0917E010196A11D62
:101C2000B11D80937B0190937C01A0937D01B093C3
:101C30007E018DE09CE09093740180937301089580
:101C4000809177019091780101969093780180932B
:101C5000770180918D010E94B207E0917501F091AA
:101C60007601099580918F01811111C080918E01BB
:101C700080938F0120918A0180919201909193012C
:101C8000820F911D909393018093920103C0815024
:101C900080938F01209177013091780180918501A7
:101CA0009091860128173907C9F480917B019091A2
:101CB0007C01A0917D01B0917E010196A11DB11D15
:101CC00080937B0190937C01A0937D01B0937E0172
:101CD0008CE09DE0909374018093730108951F93AD
:101CE000CF93DF93D82FE62F30939101209390016B
:101CF00060938A014093890110927B0110927C01CC
:101D000010927D0110927E01642F70E0E49FA0018B
:101D1000112450938C0140938B01182F117080FF78
:101D200003C084E091E002C088ED90E00E94EE11D3
:101D3000615060938E01C0918E01C0938F012E2F50
:101D400030E063E0220F331F6A95E1F7032E000CA9
:101D5000440B550B60EE72E080E090E00E9424128C
:101D6000243061F018F4233089F00BC0253019F0CD
:101D7000263049F006C089E498E00AC08DE898E072
:101D800007C0273018F08CEF97E002C085EC98E090
:101D90009093760180937501579A219A5F98299ABA
:101DA000239A4091890187EC80938D011123E1F101
:101DB00088E391E090938801809387012C2FCC0FCA
:101DC000330B2F5F3F4F429FC001439F900D112463
:101DD0009C0197FF02C02F5F3F4F359527953195A6
:101DE00021953109A90144565F4F509380014093DA
:101DF0007F01840F951F90938201809381012C5263
:101E00003E4F3093840120938301885C9E4F9093D2
:101E10008601809385018FEF91E0909387008093F6
:101E2000860085E290E03BC086E091E090938801D7
:101E3000809387012C2FCC0F330B2F5F3F4F429F96
:101E4000C001439F900D11249C0197FF02C02F5F9A
:101E50003F4F35952795319521953109A9014D576A
:101E60005F4F5093800140937F01840F951F9093A3
:101E700082018093810127573E4F30938401209344
:101E800083018A5F9E4F90938601809385018BEF3B
:101E900091E0909387008093860083E290E0909396
:101EA00089008093880010927A0110927901109233
:101EB000780110927701D1FF15C081EB97E09093E4
:101EC0007401809373011092800091E090938100DF
:101ED00080916F00806280936F009DBB88E080934B
:101EE00069000FC080EA9BE09093740180937301B6
:101EF00082EC8093800089E18093810081E080936F
:101F00006F007894DF91CF911F9108951F920F92E7
:101F10000FB60F9211242F933F934F935F936F93BC
:101F20007F938F939F93AF93BF93EF93FF93E09132
:101F30000801F09109010995E0917301F091740194
:101F40000995FF91EF91BF91AF919F918F917F91F3
:101F50006F915F914F913F912F910F900FBE0F9016
:101F60001F9018951F920F920FB60F9211242F9366
:101F70003F934F935F936F937F938F939F93AF9311
:101F8000BF93EF93FF932091860030918700E4E8A0
:101F9000F0E080819181821B930B91838083E0919B
:101FA0000801F09109010995E0917301F091740124
:101FB0000995FF91EF91BF91AF919F918F917F9183
:101FC0006F915F914F913F912F910F900FBE0F90A6
:101FD0001F9018951F920F920FB60F9211248F9396
:101FE0009F93AF93BF938091770190917801892B54
:101FF000D1F180917B0190917C01A0917D01B09104
:102000007E010196A11DB11D80937B0190937C01FF
:10201000A0937D01B0937E0180916F01909170013A
:10202000A0917101B0917201181619061A061B06CB
:10203000D4F480916F0190917001A0917101B091E1
:1020400072010197A109B10980936F01909370010A
:10205000A0937101B0937201892B8A2B8B2B19F4F9
:102060001092B1002B98109278011092770187E9B5
:102070009DE09093740180937301BF91AF919F9104
:102080008F910F900FBE0F901F901895FC017583D4
:1020900064830895CF92EF920F931F93022FFC0158
:1020A00024813581F90132965491D9011196FD01AF
:1020B000C490F901E490FD01A491051B0A9F8001E1
:1020C00011240D5F1F4F0E94BC051F910F91EF90CF
:1020D000CF900895DC0113962C91139730E014965D
:1020E000ED91FC911597319664914091890150E0F2
:1020F000461B51092417350724F0649140E00C94E5
:10210000D906E4912E0F311DFC01238308950F930E
:102110001F93CF93DF931F92CDB7DEB76A3029F1BB
:10212000F0F4662309F466C0683061F5DC011496AA
:10213000ED91FC911597E49112966C91129770E0D5
:102140006E1B710912966C93129720E213964C91B4
:102150000F90DF91CF911F910F910C944A106D3029
:1021600071F06E3009F446C00DC0DC0112961C926D
:102170000F90DF91CF911F910F910C946A10FC0189
:10218000128238C0262F8C01DC0112966C911297B6
:1021900080918A011496ED91FC911597E491462F58
:1021A00050E0B8E08B9FC00111248E1B9109F8010B
:1021B000481759076CF01282C80129830E946A10DF
:1021C0002981D80113964C91139712966C9101C0F6
:1021D0004381C8010E944A10D8011496ED91FC91E8
:1021E0001597E49112968C911297F0E0E80FF11D8B
:1021F0001296EC930F90DF91CF911F910F9108955C
:102200000F931F93CF93DF938C01EB0169916623AA
:1022100021F0C8010E948710F9CFDF91CF911F9163
:102220000F9108950C940011CF93DF93EC016DE0B2
:102230000E9487106AE0CE01DF91CF910C94871045
:10224000CF93DF93EC010E940011CE01DF91CF917B
:102250000C9414114F925F926F927F928F929F9283
:10226000AF92BF92CF92DF92EF92FF920F931F93A4
:10227000CF93DF93CDB7DEB7A0970FB6F894DEBF4C
:102280000FBECDBF5C014115510561057105C9F453
:1022900060E3A0960FB6F894DEBF0FBECDBFDF910E
:1022A000CF911F910F91FF90EF90DF90CF90BF9053
:1022B000AF909F908F907F906F905F904F900C9415
:1022C00087108E010F5F1F4FC12CD12C7601480162
:1022D000422E512C612C712C8FEFC81AD80AE80AB3
:1022E000F80ACB01BA01A30192010E940212942FB5
:1022F000852FF80161938F01A901692F782F41156E
:1023000051056105710541F78601612C712CF1E0E1
:10231000CF1AD108E108F108F601E619F709E80D2E
:10232000F91D60816A3010F4605D01C0695CC5010F
:102330000E9487108FEF681A780A6016710661F79D
:10234000A0960FB6F894DEBF0FBECDBFDF91CF9140
:102350001F910F91FF90EF90DF90CF90BF90AF90C3
:102360009F908F907F906F905F904F900895CF9245
:10237000DF92EF92FF92CF93DF93EC016A017B0132
:1023800077FF0BC06DE20E948710F094E094D09428
:10239000C094C11CD11CE11CF11C2AE0B701A601AC
:1023A000CE01DF91CF91FF90EF90DF90CF900C9412
:1023B0002A112115310519F4642F0C9487102A3045
:1023C000310511F40C94B7110C942A119A01462F7F
:1023D000660F550B660B770B0C94D91197FB072EE4
:1023E00016F4009407D077FD09D00E94431207FC31
:1023F00005D03EF4909581959F4F08957095619515
:102400007F4F0895A1E21A2EAA1BBB1BFD010DC030
:10241000AA1FBB1FEE1FFF1FA217B307E407F50794
:1024200020F0A21BB30BE40BF50B661F771F881F70
:10243000991F1A9469F760957095809590959B0106
:10244000AC01BD01CF010895052E97FB1EF4009449
:102450000E943B1257FD07D00E94021207FC03D0D6
:102460004EF40C943B1250954095309521953F4F7A
:102470004F4F5F4F089590958095709561957F4F70
:102480008F4F9F4F0895AA1BBB1B51E107C0AA1F86
:10249000BB1FA617B70710F0A61BB70B881F991F05
:1024A0005A95A9F780959095BC01CD010895CF93D9
:1024B000DF938230910510F482E090E0E091960184
:1024C000F091970120E030E0C0E0D0E0309711F1CA
:1024D0004081518148175907C0F04817590761F4E6
:1024E00082819381209719F09B838A832BC09093DC
:1024F00097018093960126C02115310519F04217E6
:10250000530718F49A01BE01DF01EF010280F38145
:10251000E02DDCCF2115310509F1281B390B2430C2
:10252000310590F412968D919C9113976115710568
:1025300021F0FB019383828304C0909397018093E1
:102540009601FD01329644C0FD01E20FF31F819315
:102550009193225031092D933C933AC020919401DC
:1025600030919501232B41F4209102013091030118
:102570003093950120939401209100013091010145
:102580002115310541F42DB73EB74091040150911A
:102590000501241B350BE0919401F0919501E217A0
:1025A000F307A0F42E1B3F0B2817390778F0AC0176
:1025B0004E5F5F4F2417350748F04E0F5F1F509353
:1025C0009501409394018193919302C0E0E0F0E083
:1025D000CF01DF91CF9108950F931F93CF93DF9396
:1025E000009709F48CC0FC0132971382128200918B
:1025F0009601109197010115110581F42081318117
:10260000820F931F2091940130919501281739076B
:1026100079F5F0939501E093940171C0D80140E001
:1026200050E0AE17BF0750F412962D913C911397CE
:10263000AD012115310509F1D901F3CF9D01DA0171
:102640003383228360817181860F971F82179307DE
:1026500069F4EC0128813981260F371F2E5F3F4F27
:10266000318320838A819B8193838283452B29F444
:10267000F0939701E093960142C01396FC93EE937A
:102680001297ED01499159919E01240F351FE217D0
:10269000F30771F480819181840F951F0296119642
:1026A0009C938E938281938113969C938E93129721
:1026B000E0E0F0E0D80112968D919C91139700977D
:1026C00019F0F8018C01F6CF8D919C9198012E5F45
:1026D0003F4F820F931F209194013091950128174D
:1026E000390769F4309729F41092970110929601F6
:1026F00002C0138212821093950100939401DF911E
:10270000CF911F910F910895DC0101C06D9341504D
:0A2710005040E0F70895F894FFCF61
:10271A00000098012000B107B1075269626F2031A9
:10272A0030312C20426F6F74696E672E2E2E004452
:10273A006F6E652C207475726E20746865207377CD
:10274A0069746368206F666620746F2072756E20E4
:10275A007468652070726F6772616D21000A4C4956
:0E276A00436F6D6D616E64507573680A0000F8
:00000001FF
