:100000000C9480020C94F2110C949D020C949D02AD
:100010000C949D020C949D020C949D020C949D02E4
:100020000C949D020C949D020C94BA110C949D02A8
:100030000C949D020C948E110C949D020C949D02C4
:100040000C9480040C949D020C949D020C949D02CF
:100050000C949D020C949D020C949D020C949D02A4
:100060000C949D020C949D020000000109007D008B
:100070000F0052000200580009008A0009007D00AC
:100080000F00010004007B000F0059000200640013
:1000900009008A0001007B001600010004007B00BB
:1000A0000900AC00150079000D00280002007A005C
:1000B0000900BA000B0016000F00010004007B00CD
:1000C00009007D000F0065000200700009008A0031
:1000D00001007B001600010004007B000900AC0059
:1000E000150079000D00480018000F0002000900FB
:1000F000D20008000B002C0009007D000F007100E9
:100100000200780009008A000B0002005300610021
:100110006C00760065002200060054006100620059
:1001200065006C006C0069006E0061003A002200FE
:100130000B0050006F00740065006E007A006500CF
:100140003A0032005E0022000B004700720061009E
:100150007A00690065002200070008000A0001001B
:1001600002000100B40011000100B50011000100FF
:10017000B60011000100B70011000A000400B3002E
:100180000500B2000100B200170001000400B20037
:100190000D00A3000100B3001F00000010000100CB
:1001A000B300160001000400B3000B008E000A002B
:1001B0000100B80011000A000100B90011000A0096
:1001C000160030001000170030000A000000000088
:1001D0003800060001000F008000C0000400F50098
:1001E0000400F6000500F7000100F7001700010009
:1001F0000400F7000100F6000D00D1000600F50034
:100200000400F60008000B00C0000A000400F8001B
:1002100005000000010000001700010004000000BC
:100220000100F8000D00E6000600F8000400F800E8
:100230000B00D6000A00F600F5000000F700F600FB
:10024000F500F60000000000F7000100F7000000D4
:10025000F7000000000000000000000000000000A7
:100260000000000000000000000000070002010084
:100270000003040600000000000000000102040862
:100280001020408001020408102001020408102000
:10029000040404040404040402020202020203032C
:1002A00003030303000000002300260029000000D0
:1002B0000000250028002B0000000000240027007B
:1002C0002A000406200000000000004040400040DA
:1002D00000A0A000000000A0E0A0E0A0004060C0DE
:1002E00060C000A0204080A0002040C0A0E00080AE
:1002F00080000000004080808040008040404080BE
:100300000040A0400000000040E04000000000006D
:100310008080000000E0000000000000008000205D
:100320002040808000E0A0A0A0E00040C04040E06D
:1003300000E020E080E000E020E020E000A0A0E07D
:10034000202000E080E020C000C080E0A0E000E0CD
:100350002040808000E0A0E0A0E000E0A0E020607D
:10036000000040004000000040004080002040802D
:1003700040200000E000E00000804020408000C0FD
:100380002040004000E0A0A0E0E000E0A0E0A0A04D
:1003900000C0A0E0A0C000E0808080E000C0A0A07D
:1003A000A0C000E080E080E000E080E0808000E02D
:1003B0008080A0E000A0A0E0A0A000E0404040E0DD
:1003C00000202020A0E00080A0C0C0A0008080808D
:1003D00080E000A0E0E0A0A000C0A0A0A0A000409D
:1003E000A0A0A04000E0A0E080800040A0A0E066C7
:1003F00000E0A0C0E0AA00E080E020E000E0404093
:10040000404000A0A0A0A0E000A0A0A0A04000A0AC
:10041000A0E0E0A200A0A040A0A000A0A04040401A
:1004200000E0204080E000C0808080C000808040EC
:10043000202000C0404040C00040A000000000005C
:10044000000000E0008040000000000060A0A0600C
:10045000008080C0A0C0000060808060002020601C
:10046000A0600040A0E08060006040E0404000608C
:10047000A06020C0008080C0A0A00040004040409C
:100480000040004040C0008080A0C0A000C04040AC
:1004900040E00000A0E0A0A00000C0A0A0A00000DC
:1004A00040A0A0400000C0A0C080000060A060206C
:1004B0000000C0A080800000604020600040E0405C
:1004C00040400000A0A0A0600000A0A0A04000004C
:1004D000A0A0E0A00000A04040A00000A0E02040BC
:1004E0000000E04080E0002040C04022004040008A
:1004F00040400080406040800000A04000000000BC
:1005000011241FBECFEFD8E0DEBFCDBF11E0A0E0C9
:10051000B1E0EAEDF7E202C005900D92AA35B1070D
:10052000D9F721E0AAE5B1E001C01D92AB39B207CD
:10053000E1F70E948B050C94EB130C940000CF9311
:1005400085E10E945704C82F42E050E0682F83E6FF
:1005500091E00E94A9098C2FCF9108950F931F93CA
:10056000CF93DF9381E0809362016AE071E083E6DC
:1005700091E00E94DB0808E610E0C0E0D0E0F8015E
:10058000249140E063E082E00E9450052C2F40E07F
:1005900063E082E00E94500561E070E080E090E05E
:1005A0000E94EF0460E084E00E94270461E070E0B4
:1005B00080E090E00E94EF0461E084E00E94270464
:1005C00061E070E080E090E00E94EF0460E084E091
:1005D0000E94270461E070E080E090E00E94EF0458
:1005E00061E08CE00E9427046AE070E080E090E027
:1005F0000E94EF0460E08CE00E94270462E370E058
:1006000080E090E00E94EF0461E08CE00E9427040B
:100610006AE070E080E090E00E94EF0421960E5FB7
:100620001F4FC115F1E0DF0709F0A9CF6FE171E0BD
:1006300083E691E00E94DB0860ED77E080E090E0E7
:100640000E94EF0460E083E691E0DF91CF911F917B
:100650000F910C949805CF9361E08CE00E94EB031E
:1006600061E083E00E94EB0361E084E00E94EB0321
:1006700061E082E00E94EB0360E08DE00E94EB030A
:10068000CEE060E08C2F0E94EB03CF5FC631C9F74C
:10069000CF91089560E083E691E00E94EA0562EC64
:1006A00072E083E691E00E9401080E942B03809192
:1006B0006201811102C00E94AE0268EE73E080E028
:1006C00090E00C94EF048DE00E94570420916101AA
:1006D000422F50E08417950709F453C081E021119F
:1006E00080E0809361018AE00E945704892BD9F150
:1006F00080915A01813021F1C0F0823071F50E9461
:100700009F02282F082E000C330B3093600120939A
:100710005F01282F40915D0160915B0183E691E0CC
:100720000E94050810925A0108950E949F02082E07
:10073000000C990B90935C0180935B0181E00AC0EF
:100740000E949F02082E000C990B90935E018093EB
:100750005D0182E080935A0108956DE471E083E6C3
:1007600091E00C94CD0886E00E945704892B49F053
:100770000E949F0240E050E0682F83E691E00C94D5
:10078000A1090895833081F028F4813099F08230F6
:10079000A1F008958630A9F08730B9F08430D1F403
:1007A000809180008F7D03C0809180008F7780933F
:1007B0008000089584B58F7702C084B58F7D84BD95
:1007C00008958091B0008F7703C08091B0008F7D35
:1007D0008093B0000895CF93DF9390E0FC01E4583C
:1007E000FD4F2491FC01E057FD4F8491882361F176
:1007F00090E0880F991FFC01E854FD4FC591D491FA
:10080000FC01E255FD4FA591B491611109C09FB75C
:10081000F8948881209582238883EC912E230BC045
:10082000623061F49FB7F8943881822F80958323DA
:100830008883EC912E2B2C939FBF06C08FB7F89422
:10084000E8812E2B28838FBFDF91CF9108951F93CE
:10085000CF93DF93282F30E0F901E859FD4F8491C1
:10086000F901E458FD4FD491F901E057FD4FC491CF
:10087000CC23C9F0162F81110E94C203EC2FF0E0A7
:10088000EE0FFF1FE255FD4FA591B4918FB7F8947D
:10089000111105C09C91ED2FE095E92302C0EC9168
:1008A000ED2BEC938FBFDF91CF911F910895CF93E4
:1008B000DF93282F30E0F901E859FD4F8491F901C9
:1008C000E458FD4FD491F901E057FD4FC491CC237A
:1008D00091F081110E94C203EC2FF0E0EE0FFF1F98
:1008E000EC55FD4FA591B491EC91ED2381E090E0A2
:1008F00021F480E002C080E090E0DF91CF91089584
:100900001F920F920FB60F9211242F933F938F9344
:100910009F93AF93BF9380916A0190916B01A091D7
:100920006C01B0916D013091690123E0230F2D37E7
:1009300020F40196A11DB11D05C026E8230F0296E3
:10094000A11DB11D2093690180936A0190936B01F1
:10095000A0936C01B0936D0180916E0190916F0135
:10096000A0917001B09171010196A11DB11D8093FC
:100970006E0190936F01A0937001B0937101BF91CC
:10098000AF919F918F913F912F910F900FBE0F903C
:100990001F9018953FB7F89480916E0190916F0168
:1009A000A0917001B091710126B5A89B05C02F3FA1
:1009B00019F00196A11DB11D3FBFBA2FA92F982F85
:1009C0008827820F911DA11DB11DBC01CD0142E000
:1009D000660F771F881F991F4A95D1F70895CF9208
:1009E000DF92EF92FF92CF93DF936B017C010E9425
:1009F000CA04EB01C114D104E104F10479F00E94AE
:100A0000CA046C1B7D0B683E7340A0F381E0C81ADA
:100A1000D108E108F108C851DC4FECCFDF91CF914C
:100A2000FF90EF90DF90CF900895789484B5826026
:100A300084BD84B5816084BD85B5826085BD85B582
:100A4000816085BDEEE6F0E0808181608083E1E831
:100A5000F0E0108280818260808380818160808369
:100A6000E0E8F0E0808181608083E1EBF0E080816C
:100A700084608083E0EBF0E0808181608083EAE73E
:100A8000F0E08081846080838081826080838081C7
:100A9000816080838081806880831092C100089586
:100AA000BF92CF92DF92EF92FF920F931F93CF935B
:100AB000DF93C82ED62EB42EC7E0D0E0022F10E070
:100AC00087E0E82EF12CB11005C0C7018C1B9D0BEF
:100AD000980102C098018C2F02C0359527958A9500
:100AE000E2F7B901617077278C2D0E94270461E03D
:100AF0008D2D0E94270460E08D2D0E9427042197F0
:100B000010F7DF91CF911F910F91FF90EF90DF9041
:100B1000CF90BF9008950E9415050E944A03C0E03F
:100B2000D0E00E9463032097E1F30E940000F9CF18
:100B3000FC01613069F018F06230C1F00895128252
:100B4000138240918E0150918F0160E070E008C0E7
:100B50001282138240918E0150918F016FEF70E0ED
:100B600080919301909194010C94E413E09193018E
:100B7000F091940180918E0190918F018E0F9F1FB3
:100B8000E817F90721F0208120952193F9CF0895E6
:100B90000F931F93CF93DF93EC01942F842F887FC3
:100BA00099F0422F862F198308831A821B82692F9E
:100BB00066956695669598010E94771060E0CE0173
:100BC0000E94980580E001C081E0DF91CF911F91E4
:100BD0000F910895EF92FF920F931F93CF93DF939E
:100BE0001F92CDB7DEB77C0180E096E069830E945A
:100BF000B7128C016981892B31F020E640E8C701EA
:100C00000E94C80501C084E00F90DF91CF911F9131
:100C10000F91FF90EF9008952F923F924F925F9225
:100C20006F927F928F929F92AF92BF92CF92DF92FC
:100C3000EF92FF920F931F93CF93DF93CDB7DEB761
:100C400029970FB6F894DEBF0FBECDBF998788876E
:100C5000862F877058E0581BE11006C0F901E00F9D
:100C6000F11FE4900F5F1F4FC11006C0F901E00FA4
:100C7000F11FC4900F5F1F4F9E2D9770E694E6946E
:100C8000E694992319F0E1E0EE0D02C0EE2D98E014
:100C9000669566956695E62EF12CFC82EB82282EF1
:100CA000312C6FEF70E002C0759567958A95E2F779
:100CB000892F860FA52FB0E0BA83A983E13011F404
:100CC000982E01C0912CAFEFB0E07D0101C0EE0C79
:100CD0005A95EAF79E289D826850D62ED90EA12CEF
:100CE000B12C842E912CEE2EF12CA70141505109EC
:100CF0005F834E832101490E511CAC1408F090C053
:100D000090918D01A501480D591D949FB001959FAB
:100D1000700D1124AB81BC816A0F7B1FA885B9853A
:100D2000ED91FC91E60FF71F90814D81492340839F
:100D3000D8011196F901E00FF11F4491E885F9857A
:100D4000E080F180F701E60FF71FE42EF12C022C72
:100D500002C0F594E7940A94E2F75081E52AE08214
:100D60006E807F806A0E7B1E7B01E01AF10A87018C
:100D70007801EA0EFB1EE885F9856081718150E0FB
:100D8000A615B70510F56E0D7F1DFB01908109803A
:100D900001C0440F0A94EAF74083F901EA0FFB1FF0
:100DA0004491E885F98560817181FB01EE0DFF1D9D
:100DB000642F70E0022C02C0759567950A94E2F7E3
:100DC0005081652B60831196D3CFF8E04F16510404
:100DD00044F4F7013197E60FF71F98236081962BB3
:100DE00009C098E04916510431F0FB01EE0DFF1DDA
:100DF00090819D219083E885F985608171816E0DD8
:100E00007F1D098002C0440F551F0A94E2F7FB01C1
:100E10009081492B4083FFEFAF1ABF0A8D016DCF40
:100E200029960FB6F894DEBF0FBECDBFDF91CF91EC
:100E30001F910F91FF90EF90DF90CF90BF90AF90F8
:100E40009F908F907F906F905F904F903F902F90EA
:100E50000895DF92EF92FF920F931F93CF93DF934A
:100E60004130A9F1C0F0423009F44DC0433009F0DF
:100E7000C0C0562F5770F52E66956695669570E042
:100E8000719561957109E12C42E050E028E030E075
:100E90002F1931097CC08091930190919401209188
:100EA0008D01DC01629FA00DB11D112430918C01D8
:100EB000AC01329F400D511D11249A01FC012A17EB
:100EC0003B0708F496C08C9181931D92F8CF8091D6
:100ED00093019091940130918C0120918D01DC015E
:100EE000329FA00DB11D1124FD01629FE019F1098F
:100EF00011241196E817F90708F47BC020812E937E
:100F000010823197F7CFD62FD77066956695669584
:100F100070E0C0E048E050E04D1B510980918C0129
:100F2000C81708F066C080918D01E0919301F0919F
:100F300094018C9FE00DF11D1124DF01A60FB71F56
:100F400090E002978E0F9F1F8A179B07A0F02C91AD
:100F5000122F0D2E01C0110F0A94EAF71D923C9139
:100F6000232F30E0042E02C0359527950A94E2F72E
:100F7000212B2193E9CF8C910D2E01C0880F0A946B
:100F8000EAF71C928083CF5FC9CF8083E39480917E
:100F90008C01E81670F5A0918D018A2F90E0FC017C
:100FA0003197AE9DE00DF11D1124A0919301B091F8
:100FB0009401EA0FFB1FDF01A60FB71F8A01081B70
:100FC000190B0E0F1F1F8C9190E00F2C02C09595EE
:100FD00087950A94E2F71C92A017B107B0F2CE9160
:100FE000022E01C0CC0F0A94EAF78C2B8083319734
:100FF000EACFDF91CF911F910F91FF90EF90DF909B
:101000000895FC01758364830895CF92EF920F9346
:101010001F93022FFC0124813581F90132965491EE
:10102000D9011196FD01C490F901E490FD01A4914C
:10103000051B0A9F800111240D5F1F4F0E940C06A3
:101040001F910F91EF90CF900895DC0113962C9192
:10105000139730E01496ED91FC91159731966491B9
:1010600040918C0150E0461B51092417350724F0AC
:10107000649140E00C942907E4912E0F311DFC018E
:10108000238308950F931F93CF93DF931F92CDB7C0
:10109000DEB76A3029F1F0F4662309F466C06830DF
:1010A00061F5DC011496ED91FC911597E49112968F
:1010B0006C91129770E06E1B710912966C931297E7
:1010C00020E213964C910F90DF91CF911F910F91D9
:1010D0000C9405086D3071F06E3009F446C00DC0F7
:1010E000DC0112961C920F90DF91CF911F910F910E
:1010F0000C942508FC01128238C0262F8C01DC01DB
:1011000012966C91129780918D011496ED91FC913D
:101110001597E491462F50E0B8E08B9FC001112451
:101120008E1B9109F801481759076CF01282C8010B
:1011300029830E9425082981D80113964C91139781
:1011400012966C9101C04381C8010E940508D80124
:101150001496ED91FC911597E49112968C9112974B
:10116000F0E0E80FF11D1296EC930F90DF91CF9114
:101170001F910F9108950F931F93CF93DF938C01CD
:10118000EB016991662321F0C8010E944208F9CF62
:10119000DF91CF911F910F9108950C94BB08CF93CD
:1011A000DF93EC016DE00E9442086AE0CE01DF911E
:1011B000CF910C944208CF93DF93EC010E94BB08BF
:1011C000CE01DF91CF910C94CF084F925F926F9236
:1011D0007F928F929F92AF92BF92CF92DF92EF92C7
:1011E000FF920F931F93CF93DF93CDB7DEB7A097F6
:1011F0000FB6F894DEBF0FBECDBF5C01411551059F
:1012000061057105C9F460E3A0960FB6F894DEBFDE
:101210000FBECDBFDF91CF911F910F91FF90EF9047
:10122000DF90CF90BF90AF909F908F907F906F9006
:101230005F904F900C9442088E010F5F1F4FC12C9E
:10124000D12C76014801422E512C612C712C8FEF4C
:10125000C81AD80AE80AF80ACB01BA01A301920118
:101260000E946212942F852FF80161938F01A901CA
:10127000692F782F411551056105710541F78601E8
:10128000612C712CF1E0CF1AD108E108F108F601C8
:10129000E619F709E80DF91D60816A3010F4605D08
:1012A00001C0695CC5010E9442088FEF681A780A84
:1012B0006016710661F7A0960FB6F894DEBF0FBEF8
:1012C000CDBFDF91CF911F910F91FF90EF90DF90F5
:1012D000CF90BF90AF909F908F907F906F905F90D6
:1012E0004F900895CF92DF92EF92FF92CF93DF93CA
:1012F000EC016A017B0177FF0BC06DE20E9442089E
:10130000F094E094D094C094C11CD11CE11CF11C59
:101310002AE0B701A601CE01DF91CF91FF90EF90B7
:10132000DF90CF900C94E5082115310519F4642F56
:101330000C9442082A30310511F40C9472090C9473
:10134000E5089A01462F660F550B660B770B0C9438
:101350009409CF93DF93EC019A01462F660F550B4A
:10136000660B770B0E949409CE01DF91CF910C940C
:10137000CF08089520918400382F3A50321B335003
:10138000F0F73D5F19F03A9511F001C000000895A3
:1013900080917A0190917B01019690937B018093DB
:1013A0007A01809190010E94BA09E0917801F09150
:1013B0007901099580919201811111C0809191016B
:1013C0008093920120918D018091950190919601D9
:1013D000820F911D909396018093950103C08150D7
:1013E0008093920120917A0130917B018091840158
:1013F000909185012817390731F48FE99FE0909388
:1014000077018093760108950F93CF93DF93EAE7F6
:10141000F1E0A18DB28DC0919501D09196018389A3
:10142000AC0FBD1F0BB10F7703C000FA07F90BB962
:101430000D90000007FA07F90BB90000000000004A
:1014400006FA07F90BB900000000000005FA07F9D9
:101450000BB900000000000004FA07F90BB9000006
:101460000000000003FA07F90BB9000000000000BB
:1014700002FA07F90BB900000000000001FA07F9B1
:101480000BB98A9591F60000000000FA07F90BB934
:101490000BB10F7707FB07F90BB9DF91CF910F91D4
:1014A00008950F93CF93DF93EAE7F1E0A18DB28D1A
:1014B000C0919501D09196018389AC0FBD1F0BB1EE
:1014C0000F7703C000FA07F90BB90D9007FA07F977
:1014D0000BB90000000006FA07F90BB90000000084
:1014E00005FA07F90BB90000000004FA07F90BB977
:1014F0000000000003FA07F90BB90000000002FA2F
:1015000007F90BB900008A9501FA07F90BB9D1F672
:10151000000000FA07F90BB90BB10F7707FB07F9C9
:101520000BB9DF91CF910F9108950F93CF93DF9374
:10153000EAE7F1E0A18DB28DC0919501D0919601BD
:101540008389AC0FBD1F02C0000C0BB80D900000CA
:101550000BB800000000000C0BB800000000000CED
:101560000BB800000000000C0BB800000000000CDD
:101570000BB800000000000C0BB80000000C8A95AE
:101580000BB811F70000000C0BB8000000000000C1
:101590005F98DF91CF910F9108950F93CF93DF93D1
:1015A000EAE7F1E0A18DB28DC0919501D09196014D
:1015B0008389AC0FBD1F8E3191F08D3151F08C318C
:1015C00049F08B3141F08A3139F0893131F088317D
:1015D00029F01CC032C048C05EC074C08AC00D90E3
:1015E0000BB80000000C0BB80000000C0BB800009A
:1015F000000C0BB80000000C0BB80000000C0BB87E
:101600000000000C0BB80000000C0BB80D900BB8DC
:101610000000000C0BB80000000C0BB80000000C20
:101620000BB80000000C0BB80000000C0BB8000059
:10163000000C0BB80000000C0BB80D900BB80000AC
:10164000000C0BB80000000C0BB80000000C0BB82D
:101650000000000C0BB80000000C0BB80000000CE0
:101660000BB80000000C0BB80D900BB80000000C7C
:101670000BB80000000C0BB80000000C0BB8000009
:10168000000C0BB80000000C0BB80000000C0BB8ED
:101690000000000C0BB80D900BB80000000C0BB84C
:1016A0000000000C0BB80000000C0BB80000000C90
:1016B0000BB80000000C0BB80000000C0BB80000C9
:1016C000000C0BB80D900BB80000000C0BB800001C
:1016D000000C0BB80000000C0BB80000000C0BB89D
:1016E0000000000C0BB80000000C0BB80000000C50
:1016F0000BB80D900BB80000000C0BB80000000CEC
:101700000BB80000000C0BB80000000C0BB8000078
:10171000000C0BB80000000C0BB80000000C0BB85C
:101720000D900BB80000000C0BB80000000C0BB8BB
:101730000000000C0BB80000000C0BB80000000CFF
:101740000BB80000000C0BB80000000C0BB80D909B
:101750000BB80000000C0BB80000000C0BB8000028
:10176000000C0BB80000000C0BB80000000C0BB80C
:101770000000000C0BB80000000C0BB80D900BB86B
:101780000000000C0BB80000000C0BB80000000CAF
:101790000BB80000000C0BB80000000C0BB80000E8
:1017A000000C0BB80000000C0BB80D900BB800003B
:1017B000000C0BB80000000C0BB80000000C0BB8BC
:1017C0000000000C0BB80000000C0BB80000000C6F
:1017D0000BB80000000C0BB80D900BB80000000C0B
:1017E0000BB80000000C0BB80000000C0BB8000098
:1017F000000C0BB80000000C0BB80000000C0BB87C
:101800000000000C0BB80D900BB80000000C0BB8DA
:101810000000000C0BB80000000C0BB80000000C1E
:101820000BB80000000C0BB80000000C0BB8000057
:10183000000C0BB80D900BB80000000C0BB80000AA
:10184000000C0BB80000000C0BB80000000C0BB82B
:101850000000000C0BB80000000C0BB80000000CDE
:101860000BB80D900BB80000000C0BB80000000C7A
:101870000BB80000000C0BB80000000C0BB8000007
:10188000000C0BB80000000C0BB80000000C0BB8EB
:101890000D900BB80000000C0BB80000000C0BB84A
:1018A0000000000C0BB80000000C0BB80000000C8E
:1018B0000BB80000000C0BB80000000C0BB80D902A
:1018C0000BB80000000C0BB80000000C0BB80000B7
:1018D000000C0BB80000000C0BB80000000C0BB89B
:1018E0000000000C0BB80000000C0BB80D900BB8FA
:1018F0000000000C0BB80000000C0BB80000000C3E
:101900000BB80000000C0BB80000000C0BB8000076
:10191000000C0BB80000000C0BB80D900BB80000C9
:10192000000C0BB80000000C0BB80000000C0BB84A
:101930000000000C0BB80000000C0BB80000000CFD
:101940000BB80000000C0BB80D900BB80000000C99
:101950000BB80000000C0BB80000000C0BB8000026
:10196000000C0BB80000000C0BB80000000C0BB80A
:101970000000000C0BB80D900BB80000000C0BB869
:101980000000000C0BB80000000C0BB80000000CAD
:101990000BB80000000C0BB80000000C0BB80000E6
:1019A000000C0BB80D900BB80000000C0BB8000039
:1019B000000C0BB80000000C0BB80000000C0BB8BA
:1019C0000000000C0BB80000000C0BB80000000C6D
:1019D0000BB80D900BB80000000C0BB80000000C09
:1019E0000BB80000000C0BB80000000C0BB8000096
:1019F000000C0BB80000000C0BB80000000C0BB87A
:101A00000D900BB80000000C0BB80000000C0BB8D8
:101A10000000000C0BB80000000C0BB80000000C1C
:101A20000BB80000000C0BB80000000C0BB80D90B8
:101A30000BB80000000C0BB80000000C0BB8000045
:101A4000000C0BB80000000C0BB80000000C0BB829
:101A50000000000C0BB80000000C0BB80D900BB888
:101A60000000000C0BB80000000C0BB80000000CCC
:101A70000BB80000000C0BB80000000C0BB8000005
:101A8000000C0BB80000000C0BB80D900BB8000058
:101A9000000C0BB80000000C0BB80000000C0BB8D9
:101AA0000000000C0BB80000000C0BB80000000C8C
:101AB0000BB80000000C0BB80D900BB80000000C28
:101AC0000BB80000000C0BB80000000C0BB80000B5
:101AD000000C0BB80000000C0BB80000000C0BB899
:101AE0000000000C0BB80D900BB80000000C0BB8F8
:101AF0000000000C0BB80000000C0BB80000000C3C
:101B00000BB80000000C0BB80000000C0BB8000074
:101B1000000C0BB80D900BB80000000C0BB80000C7
:101B2000000C0BB80000000C0BB80000000C0BB848
:101B30000000000C0BB80000000C0BB80000000CFB
:101B40000BB8000000005F98DF91CF910F910895CE
:101B500080917C0190917D01019690937D0180930D
:101B60007C0180918A0190918B018833914061F5CD
:101B700080917C0190917D01059719F484EB91E0AF
:101B800008C080917C0190917D010A9739F485E22B
:101B900090E09093890080938800089580917C0163
:101BA00090917D010F9709F03FC08FEF93E09093E4
:101BB0008700809386008AE490E090938900809368
:101BC000880086E090E026C080917C0190917D01A4
:101BD000069719F480EB91E0DCCF80917C01909125
:101BE0007D010C9719F483E290E0D3CF80917C01C2
:101BF00090917D014297C1F488EF93E09093870024
:101C0000809386008AE490E0909389008093880016
:101C10008AE090E090937B0180937A0185E19EE0D9
:101C20009093770180937601089580917A01909145
:101C30007B01019690937B0180937A0180918A01C8
:101C400090918B018833914081F480917A01909139
:101C50007B018733914071F58FEF91E0909387007E
:101C60008093860085E290E017C080917A01909180
:101C70007B018630914039F48BEF91E0909387009F
:101C80008093860017C080917A0190917B01873004
:101C9000914081F483E290E09093890080938800E2
:101CA00080EA9EE0909377018093760110927D0107
:101CB00010927C0120917A0130917B018091820108
:101CC0009091830128173907D1F51092960110924F
:101CD0009501809191018093920189ED9FE090930D
:101CE0007701809376018091720190917301A091A8
:101CF0007401B0917501181619061A061B06D4F462
:101D00008091720190917301A0917401B09175015D
:101D10000197A109B1098093720190937301A09377
:101D20007401B0937501892B8A2B8B2B19F41092B7
:101D3000B1002B98E0910601F091070109940895F4
:101D400080917C0190917D01019690937D0180931B
:101D50007C0180918A0190918B018833914061F5DB
:101D600080917C0190917D01059719F484EB91E0BD
:101D700008C080917C0190917D010A9739F485E239
:101D800090E09093890080938800089580917C0171
:101D900090917D010E9709F046C08FEF93E09093EC
:101DA0008700809386008AE490E090938900809376
:101DB00088008EE391E02DC080917C0190917D019F
:101DC000069719F480EB91E0DCCF80917C01909133
:101DD0007D010C9719F483E290E0D3CF80917C01D0
:101DE00090917D01419739F488EF93E090938700BB
:101DF00080938600089580917C0190917D014297A7
:101E000091F48AE490E0909389008093880080E1C7
:101E100091E090937B0180937A0184E19FE090931D
:101E2000770180937601089580917A0190917B01EA
:101E3000019690937B0180937A0180918A01909121
:101E40008B0188339140C1F480917A0190917B019C
:101E50008F36924039F48FEF91E090938700809312
:101E6000860027C080917A0190917B018037924053
:101E700001F585E290E00FC080917A0190917B019D
:101E80008D309240B1F48BEF91E090938700809376
:101E9000860083E290E0909389008093880088EA2E
:101EA0009DE0909377018093760110927D011092CE
:101EB0007C0120917A0130917B0180918601909183
:101EC000870128173907D1F51092960110929501D4
:101ED000809191018093920188E290E19093770143
:101EE000809376018091720190917301A0917401A9
:101EF000B0917501181619061A061B06D4F48091C4
:101F0000720190917301A0917401B09175010197D4
:101F1000A109B1098093720190937301A093740198
:101F2000B0937501892B8A2B8B2B19F41092B10079
:101F30002B98E0910601F091070109940895809192
:101F40007A0190917B01019690937B0180937A01B5
:101F500020917A0130917B018091820190918301DF
:101F60002817390779F41092960110929501809103
:101F700091018093920188EC99E09093770180938E
:101F80007601089520917A0130917B01809184013E
:101F900090918501821793075CF489EB99E0909307
:101FA000770180937601E0910601F0910701099491
:101FB000089580917A0190917B01019690937B0125
:101FC00080937A01809190010E94BA09E091780192
:101FD000F0917901099580919201811111C0809150
:101FE00091018093920120918D01809195019091B2
:101FF0009601820F911D909396018093950103C0E5
:1020000081508093920120917A0130917B018091DF
:1020100084019091850128173907C9F480917E01C8
:1020200090917F01A0918001B09181010196A11D45
:10203000B11D80937E0190937F01A0938001B093A6
:10204000810185E19EE09093770180937601089568
:1020500080917A0190917B01019690937B0180930E
:102060007A01809190010E94BA09E0917801F09183
:102070007901099580919201811111C0809191019E
:102080008093920120918D0180919501909196010C
:10209000820F911D909396018093950103C081500A
:1020A0008093920120917A0130917B018091880187
:1020B0009091890128173907C9F480917E01909188
:1020C0007F01A0918001B09181010196A11DB11DF8
:1020D00080937E0190937F01A0938001B093810152
:1020E00084E19FE0909377018093760108951F9398
:1020F000CF93DF93D82FE62F309394012093930151
:1021000060938D0140938C0110927E0110927F01AB
:102110001092800110928101642F70E0E49FA00171
:10212000112450938F0140938E01182F117080FF5E
:1021300003C084E091E002C088ED90E00E944E125E
:10214000615060939101C0919101C09392012E2F33
:1021500030E063E0220F331F6A95E1F7032E000C95
:10216000440B550B60EE72E080E090E00E94841218
:10217000243061F018F4233089F00BC0253019F0B9
:10218000263049F006C081E59AE00AC085E99AE068
:1021900007C0273018F084E09AE002C08DEC9AE086
:1021A0009093790180937801579A219A5F98299AA0
:1021B000239A40918C0187EC809390011123E1F1E7
:1021C00088E391E090938B0180938A012C2FCC0FB0
:1021D000330B2F5F3F4F429FC001439F900D11244F
:1021E0009C0197FF02C02F5F3F4F35952795319592
:1021F00021953109A90144565F4F509383014093C3
:102200008201840F951F90938501809384012C5245
:102210003E4F3093870120938601885C9E4F9093B8
:102220008901809388018FEF91E0909387008093DC
:10223000860085E290E03BC086E091E090938B01C0
:1022400080938A012C2FCC0F330B2F5F3F4F429F7F
:10225000C001439F900D11249C0197FF02C02F5F86
:102260003F4F35952795319521953109A9014D5756
:102270005F4F5093830140938201840F951F909389
:1022800085018093840127573E4F30938701209327
:1022900086018A5F9E4F90938901809388018BEF1E
:1022A00091E0909387008093860083E290E0909382
:1022B00089008093880010927D0110927C01109219
:1022C0007B0110927A01D1FF15C089EB99E09093C0
:1022D0007701809376011092800091E090938100C5
:1022E00080916F00806280936F009DBB88E0809337
:1022F00069000FC088EA9DE0909377018093760192
:1023000082EC8093800089E18093810081E080935A
:102310006F007894DF91CF911F9108951F920F92D3
:102320000FB60F9211242F933F934F935F936F93A8
:102330007F938F939F93AF93BF93EF93FF93E0911E
:102340000801F09109010995E0917601F09177017A
:102350000995FF91EF91BF91AF919F918F917F91DF
:102360006F915F914F913F912F910F900FBE0F9002
:102370001F9018951F920F920FB60F9211242F9352
:102380003F934F935F936F937F938F939F93AF93FD
:10239000BF93EF93FF932091860030918700E4E88C
:1023A000F0E080819181821B930B91838083E09187
:1023B0000801F09109010995E0917601F09177010A
:1023C0000995FF91EF91BF91AF919F918F917F916F
:1023D0006F915F914F913F912F910F900FBE0F9092
:1023E0001F9018951F920F920FB60F9211248F9382
:1023F0009F93AF93BF9380917A0190917B01892B3A
:10240000D1F180917E0190917F01A0918001B091E6
:1024100081010196A11DB11D80937E0190937F01E2
:10242000A0938001B093810180917201909173011A
:10243000A0917401B0917501181619061A061B06B1
:10244000D4F48091720190917301A0917401B091C4
:1024500075010197A109B1098093720190937301ED
:10246000A0937401B0937501892B8A2B8B2B19F4DF
:102470001092B1002B9810927B0110927A018FE993
:102480009FE09093770180937601BF91AF919F91E8
:102490008F910F900FBE0F901F90189597FB072EEE
:1024A00016F4009407D077FD09D00E94A31207FC10
:1024B00005D03EF4909581959F4F08957095619554
:1024C0007F4F0895A1E21A2EAA1BBB1BFD010DC070
:1024D000AA1FBB1FEE1FFF1FA217B307E407F507D4
:1024E00020F0A21BB30BE40BF50B661F771F881FB0
:1024F000991F1A9469F760957095809590959B0146
:10250000AC01BD01CF010895052E97FB1EF4009488
:102510000E949B1257FD07D00E94621207FC03D055
:102520004EF40C949B1250954095309521953F4F59
:102530004F4F5F4F089590958095709561957F4FAF
:102540008F4F9F4F0895AA1BBB1B51E107C0AA1FC5
:10255000BB1FA617B70710F0A61BB70B881F991F44
:102560005A95A9F780959095BC01CD010895CF9318
:10257000DF938230910510F482E090E0E0919901C0
:10258000F0919A0120E030E0C0E0D0E0309711F106
:102590004081518148175907C0F04817590761F425
:1025A00082819381209719F09B838A832BC090931B
:1025B0009A018093990126C02115310519F042171F
:1025C000530718F49A01BE01DF01EF010280F38185
:1025D000E02DDCCF2115310509F1281B390B243002
:1025E000310590F412968D919C91139761157105A8
:1025F00021F0FB019383828304C090939A0180931E
:102600009901FD01329644C0FD01E20FF31F819351
:102610009193225031092D933C933AC02091970118
:1026200030919801232B41F4209102013091030154
:10263000309398012093970120910001309101017E
:102640002115310541F42DB73EB740910401509159
:102650000501241B350BE0919701F0919801E217D9
:10266000F307A0F42E1B3F0B2817390778F0AC01B5
:102670004E5F5F4F2417350748F04E0F5F1F509392
:102680009801409397018193919302C0E0E0F0E0BC
:10269000CF01DF91CF9108950F931F93CF93DF93D5
:1026A000009709F48CC0FC013297138212820091CA
:1026B000990110919A010115110581F42081318150
:1026C000820F931F209197013091980128173907A5
:1026D00079F5F0939801E093970171C0D80140E03B
:1026E00050E0AE17BF0750F412962D913C9113970E
:1026F000AD012115310509F1D901F3CF9D01DA01B1
:102700003383228360817181860F971F821793071D
:1027100069F4EC0128813981260F371F2E5F3F4F66
:10272000318320838A819B8193838283452B29F483
:10273000F0939A01E093990142C01396FC93EE93B3
:102740001297ED01499159919E01240F351FE2170F
:10275000F30771F480819181840F951F0296119681
:102760009C938E938281938113969C938E93129760
:10277000E0E0F0E0D80112968D919C9113970097BC
:1027800019F0F8018C01F6CF8D919C9198012E5F84
:102790003F4F820F931F2091970130919801281786
:1027A000390769F4309729F410929A01109299012F
:1027B00002C0138212821093980100939701DF9157
:1027C000CF911F910F910895DC0101C06D9341508D
:0A27D0005040E0F70895F894FFCFA1
:1027DA0000009B012000B909B9095269626F2031D2
:1027EA0030312C20426F6F74696E672E2E2E004492
:1027FA006F6E652C207475726E207468652073770D
:10280A0069746368206F666620746F2072756E2023
:10281A007468652070726F6772616D210046415459
:0A282A00414C204552524F5200006D
:00000001FF
